{
  "contractName": "BlockchainNoteService",
  "abi": [
    {
      "constant": false,
      "inputs": [
        {
          "internalType": "uint256",
          "name": "id",
          "type": "uint256"
        },
        {
          "internalType": "string",
          "name": "title",
          "type": "string"
        },
        {
          "internalType": "string",
          "name": "content",
          "type": "string"
        }
      ],
      "name": "editNote",
      "outputs": [],
      "payable": false,
      "stateMutability": "nonpayable",
      "type": "function"
    },
    {
      "constant": true,
      "inputs": [
        {
          "internalType": "uint256",
          "name": "id",
          "type": "uint256"
        }
      ],
      "name": "getNote",
      "outputs": [
        {
          "internalType": "string",
          "name": "",
          "type": "string"
        },
        {
          "internalType": "string",
          "name": "",
          "type": "string"
        }
      ],
      "payable": false,
      "stateMutability": "view",
      "type": "function"
    }
  ],
  "bytecode": "0x608060405234801561001057600080fd5b5061090e806100206000396000f3fe608060405234801561001057600080fd5b50600436106100365760003560e01c80635238d5c61461003b578063a965a94114610197575b600080fd5b6101956004803603606081101561005157600080fd5b81019080803590602001909291908035906020019064010000000081111561007857600080fd5b82018360208201111561008a57600080fd5b803590602001918460018302840111640100000000831117156100ac57600080fd5b91908080601f016020809104026020016040519081016040528093929190818152602001838380828437600081840152601f19601f8201169050808301925050505050505091929192908035906020019064010000000081111561010f57600080fd5b82018360208201111561012157600080fd5b8035906020019184600183028401116401000000008311171561014357600080fd5b91908080601f016020809104026020016040519081016040528093929190818152602001838380828437600081840152601f19601f8201169050808301925050505050505091929192905050506102aa565b005b6101c3600480360360208110156101ad57600080fd5b81019080803590602001909291905050506105d6565b604051808060200180602001838103835285818151815260200191508051906020019080838360005b838110156102075780820151818401526020810190506101ec565b50505050905090810190601f1680156102345780820380516001836020036101000a031916815260200191505b50838103825284818151815260200191508051906020019080838360005b8381101561026d578082015181840152602081019050610252565b50505050905090810190601f16801561029a5780820380516001836020036101000a031916815260200191505b5094505050505060405180910390f35b60008311610320576040517f08c379a000000000000000000000000000000000000000000000000000000000815260040180806020018281038252600e8152602001807f6964e4b88de883bde4b8bae7a9ba00000000000000000000000000000000000081525060200191505060405180910390fd5b60405160200180600001905060405160208183030381529060405280519060200120826040516020018082805190602001908083835b602083106103795780518252602082019150602081019050602083039250610356565b6001836020036101000a038019825116818451168082178552505050505050905001915050604051602081830303815290604052805190602001201415610428576040517f08c379a00000000000000000000000000000000000000000000000000000000081526004018080602001828103825260118152602001807f7469746c65e4b88de883bde4b8bae7a9ba00000000000000000000000000000081525060200191505060405180910390fd5b60405160200180600001905060405160208183030381529060405280519060200120816040516020018082805190602001908083835b60208310610481578051825260208201915060208101905060208303925061045e565b6001836020036101000a038019825116818451168082178552505050505050905001915050604051602081830303815290604052805190602001201415610530576040517f08c379a00000000000000000000000000000000000000000000000000000000081526004018080602001828103825260138152602001807f636f6e74656e74e4b88de883bde4b8bae7a9ba0000000000000000000000000081525060200191505060405180910390fd5b6040518060400160405280838152602001828152506000803373ffffffffffffffffffffffffffffffffffffffff1673ffffffffffffffffffffffffffffffffffffffff168152602001908152602001600020600085815260200190815260200160002060008201518160000190805190602001906105b0929190610834565b5060208201518160010190805190602001906105cd929190610834565b50905050505050565b6060806000831161064f576040517f08c379a000000000000000000000000000000000000000000000000000000000815260040180806020018281038252600e8152602001807f6964e4b88de883bde4b8bae7a9ba00000000000000000000000000000000000081525060200191505060405180910390fd5b6000803373ffffffffffffffffffffffffffffffffffffffff1673ffffffffffffffffffffffffffffffffffffffff16815260200190815260200160002060008481526020019081526020016000206000016000803373ffffffffffffffffffffffffffffffffffffffff1673ffffffffffffffffffffffffffffffffffffffff1681526020019081526020016000206000858152602001908152602001600020600101818054600181600116156101000203166002900480601f0160208091040260200160405190810160405280929190818152602001828054600181600116156101000203166002900480156107885780601f1061075d57610100808354040283529160200191610788565b820191906000526020600020905b81548152906001019060200180831161076b57829003601f168201915b50505050509150808054600181600116156101000203166002900480601f0160208091040260200160405190810160405280929190818152602001828054600181600116156101000203166002900480156108245780601f106107f957610100808354040283529160200191610824565b820191906000526020600020905b81548152906001019060200180831161080757829003601f168201915b5050505050905091509150915091565b828054600181600116156101000203166002900490600052602060002090601f016020900481019282601f1061087557805160ff19168380011785556108a3565b828001600101855582156108a3579182015b828111156108a2578251825591602001919060010190610887565b5b5090506108b091906108b4565b5090565b6108d691905b808211156108d25760008160009055506001016108ba565b5090565b9056fea265627a7a7231582020dbdf3dd09ad908ad246e369235959a3dab3893dfa49817ff66739defed734364736f6c63430005100032",
  "source": "pragma solidity >=0.5.0;\r\n\r\ncontract BlockchainNoteService {\r\n    struct Note{\r\n        string title;//笔记标题\r\n        string content;//笔记内容\r\n    }\r\n    \r\n    mapping(address => mapping(uint256 => Note)) notedata;\r\n    \r\n    function editNote(uint256 id,  string memory title, string memory content)  public\r\n    {\r\n        require(id > 0, \"id不能为空\");\r\n        require(keccak256(abi.encodePacked(title))!=keccak256(abi.encodePacked(\"\")), \"title不能为空\");\r\n        require(keccak256(abi.encodePacked(content))!=keccak256(abi.encodePacked(\"\")), \"content不能为空\");\r\n        notedata[msg.sender][id]= Note(title, content);\r\n    }\r\n\r\n    function getNote(uint256 id) public view returns(string memory, string memory)\r\n    {\r\n        require(id > 0, \"id不能为空\");\r\n        return (notedata[msg.sender][id].title, notedata[msg.sender][id].content);\r\n    }\r\n    \r\n}",
  "sourcePath": "F:/educoder-remote/c1s6-truffle/contracts/BlockchainNoteService.sol",
  "compiler": {
    "name": "solc",
    "version": "0.5.16+commit.9c3226ce.Emscripten.clang"
  },
  "schemaVersion": "3.3.4",
  "updatedAt": "2021-03-24T17:43:43.543Z",
  "networkType": "ethereum",
  "devdoc": {
    "methods": {}
  },
  "userdoc": {
    "methods": {}
  }
}